:020000040800F2
:1000000078060020890100089F0B0008C90A000833
:100010009D0B00088F020008010C00080000000082
:10002000000000000000000000000000A30B00081A
:100030009102000800000000A10B0008A50B0008B9
:10004000A3010008A3010008A3010008A301000800
:10005000A3010008A3010008A30100089B020008F7
:10006000A3010008A3010008A3010008A3010008E0
:10007000A3010008A3010008A3010008A3010008D0
:10008000A3010008A3010008A3010008A3010008C0
:10009000A3010008A3010008A3010008A3010008B0
:1000A000A3010008A3010008A3010008A3010008A0
:1000B000A3010008A301000800000000A30100083C
:1000C000A30100080000000000000000A3010008D8
:1000D00000000000A3010008A301000800000000C8
:1000E00093020008A3010008A301000800F002F831
:1000F00000F03AF80AA090E8000C82448344AAF188
:100100000107DA4501D100F02FF8AFF2090EBAE885
:100110000F0013F0010F18BFFB1A43F0010318473B
:10012000340B0000540B0000103A24BF78C878C18B
:10013000FAD8520724BF30C830C144BF04680C60ED
:10014000704700000023002400250026103A28BF35
:1001500078C1FBD8520728BF30C148BF0B60704739
:100160001FB51FBD10B510BD00F058F81146FFF7C0
:10017000F7FF00F056FD00F076F803B4FFF7F2FF4A
:1001800003BC00F07DF8000009488047094800479B
:10019000FEE7FEE7FEE7FEE7FEE7FEE7FEE7FEE737
:1001A000FEE7FEE704480549054A064B7047000094
:1001B000FF0B0008ED000008780000207806002002
:1001C00078020020780200204FF0000200B51346AC
:1001D00094469646203922BFA0E80C50A0E80C5067
:1001E000B1F12001BFF4F7AF090728BFA0E80C5018
:1001F00048BF0CC05DF804EB890028BF40F8042B11
:1002000008BF704748BF20F8022B11F0804F18BF7D
:1002100000F8012B7047704770477047754600F033
:100220002BF8AE4605006946534620F00700854688
:1002300018B020B5FFF7B6FFBDE820404FF000062C
:100240004FF000074FF000084FF0000B21F00701BE
:10025000AC46ACE8C009ACE8C009ACE8C009ACE801
:10026000C0098D46704710B50446AFF300802046A4
:10027000BDE81040FFF781BF004870471400002020
:1002800001491820ABBEFEE7260002007047FEE7DA
:1002900070474FF4004000F027B8022000F024B867
:1002A0002DE9F84300250D4CB0F5004F02D0257024
:1002B000BDE8F8830120DFF828800A4E207047034C
:1002C0003946404600F0FCF800950098401C00902C
:1002D000B042FADB20780028F2D1E9E700000020E4
:1002E0000010014040420F00044910B50A68024264
:1002F00002D00860FFF7D4FF10BD000014040140D5
:100300002DE9F84FDFF89C910024A9F1040B234656
:100310000F2709F1040AABF1040EBBE00125A5404B
:100320002A40AA4276D1DFF880C14E68A6EB0C08BD
:1003300066452BD00DDC032E34D005DC36B3012E00
:1003400019D0022E2FD11BE0112E16D0122E2AD139
:1003500019E0B8F5881F19D006DCB8F5803F15D034
:10036000B8F5801F1FD111E0B8F5001F0ED0B8F509
:10037000041F18D10AE0CB6815E0CB681B1D12E002
:10038000CB6808330FE0CB680C330CE08B682BB1E3
:10039000012B4FF0080303D0456104E0042302E081
:1003A000056100E00023FF2A01D8064601E000F1C4
:1003B00004064FEA840501D9A5F12005D6F800808E
:1003C00007FA05FC28EA0C0803FA05F548EA0508CF
:1003D000C6F800804D68ED005BD5344DAE6946F03F
:1003E0000106AE61AD6924F0030605F00105009534
:1003F0002F4D06EB050CDCF80850A607360F07FA60
:1004000006F825EA0805DFF8AC80404503D14FF037
:10041000000810E03DE0DFF8A080404502D14FF039
:10042000010808E0DFF89480404502D14FF002084F
:1004300001E04FF0030808FA06F848EA0508CCF88E
:1004400008804D68D9F80060ED024D4601D516438D
:1004500000E096432E604D68DAF80060AD02554624
:1004600001D5164300E096432E604D68DBF800602E
:10047000AD035D4601D5164300E096432E604D68FE
:10048000DEF80060ED03754601D5164300E09643A3
:100490002E60641C0A6832FA04F57FF43FAFBDE8B1
:1004A000F88F000008040140000011100010024005
:1004B0000000014000080140000C01400010014014
:1004C000C26821EA02030A4043EA0241016170471F
:1004D0000AB1016170470904FBE700000148806828
:1004E000704700000400002002488168027811442F
:1004F0008160704704000020074810B5016841F092
:1005000010010160032000F06DF80F2000F006F8E4
:1005100000F024F8002010BD0020024070B50D4D01
:1005200004464FF47A712878B1FBF0F00A49096863
:10053000B1FBF0F000F0B4FA48B9102C07D2002259
:100540002146501E00F02EF800206C6070BD012086
:1005500070BD00000400002010000020094808B50C
:10056000816941F001018161816901F0010100911E
:10057000C16941F08051C161C06900F080500090B4
:1005800008BD000000100240002809DB00F01F0237
:10059000012191404009800000F1E020C0F80011E5
:1005A00070470000F0B40E4B1B680C46C3F30223E7
:1005B000C3F10705042D00D90425191D072901D20F
:1005C000002300E0DB1E012606FA05F1491E21404A
:1005D00099409E40761E16403143F0BC00F011BB9E
:1005E0000CED00E0064900F0070208684FF6FF0333
:1005F000184040EA0220034A104308607047000098
:100600000CED00E00000FA052DE9F0470F4605006B
:1006100061D0434E306800F00700B84209D230681C
:1006200020F0070038433060306800F00700B8421F
:1006300051D128683B4C810712D5400703D560682B
:1006400040F4E06060602878000703D5606840F4FB
:10065000605060606068A96820F0F0000843606046
:100660002878C00728D06868012810D0216802289F
:1006700010D0890700292EDA616821F003010143B7
:100680006160FFF72BFF804641F288390DE0216859
:100690008903EFE78901EDE7FFF720FFA0EB0801F1
:1006A000494502D90320BDE8F0876068696800F019
:1006B0000C00B0EB810FEFD1306800F00700B842BA
:1006C0000BD9306820F0070038433060306800F004
:1006D0000700B84201D00120E5E72878400705D59A
:1006E0006068E96820F4E0600843606028780007EB
:1006F00006D56068296920F4605040EAC100606056
:1007000000F018F86168084AC1F30311515CC84051
:100710000649086006480068FFF700FF0020C2E7AE
:100720000020024000100240420C0008100000208F
:10073000080000200E4A51680E4801F00C03042BFB
:1007400011D0082B0FD10C48C1F38343C903C05CFF
:100750000AD55168084AC1F34041921E515C054ACE
:100760005043B0FBF1F07047044948437047000024
:100770000010024000127A00320C000800093D000F
:100780002DE9F84F040070D02078C04DC00749D043
:100790006868C0F38100012807D06868C0F3810051
:1007A000022809D16868C00306D52868800339D5B6
:1007B00060680028E7D035E06068B0F5803F0BD076
:1007C00010B1B0F5A02F11D0286820F48030286037
:1007D000286820F4802002E0286840F480302860F7
:1007E000606890B1FFF77AFE06460AE0286840F498
:1007F00080202860F0E700BFFFF770FE801B6428B0
:1008000073D828688003F7D50CE0FFF767FE06462B
:1008100005E000BFFFF762FE801B6428F0D828685F
:100820008003F7D420789A4E80074FF001094FF0EB
:10083000000839D5686810F00C0F07D06868C0F35D
:100840008100022809D16868C00306D4286880079F
:1008500014D52069012808D110E02069B0B1C6F88C
:100860000090FFF73BFE074605E00AE1FFF736FE82
:10087000C01B0228C4D828688007F7D5286861699A
:1008800020F0F80040EAC10028600DE0C6F80080C2
:10089000FFF724FE074604E0FFF720FEC01B0228F6
:1008A00023D828688007F7D4207800072CD579480A
:1008B000A169D9B1C0F80090FFF710FE074604E027
:1008C000FFF70CFEC01B02280FD8686A8007F7D517
:1008D00071484FF4FA510068B0FBF1F0009000BF8E
:1008E0000098411E0091FAD20EE080E0C0F800802E
:1008F000FFF7F4FD074604E0FFF7F0FDC01B0228F8
:1009000075D8686A8007F7D42078400760D5E86911
:100910000027C00008D4E86940F08050E861E86929
:10092000012700F0805000905C480168C90513D48D
:100930000168834641F480710160FFF7CFFD824674
:1009400006E000BFFFF7CAFDA0EB0A0064284ED8FE
:10095000DBF80000C005F5D5E06801280AD008B131
:10096000052813D0286A20F001002862286A20F0A8
:10097000040002E0286A40F001002862E06841F2C9
:10098000883B98B1FFF7AAFD82460BE0286A40F049
:1009900004002862EEE700BFFFF7A0FDA0EB0A010C
:1009A00059455AD8286A8007F6D50CE0FFF796FD1E
:1009B000824605E0FFF792FDA0EB0A0159454CD8AD
:1009C000286A8007F6D41FB1E86920F08050E861FA
:1009D000E06988B36968C1F38101022944D0022823
:1009E000C6F8608004D0FFF779FD044638E034E0B3
:1009F000FFF774FD074604E0FFF770FDC01B0228F7
:100A00002BD828688001F7D4206AB0F5803F05D143
:100A10006868A16820F4003008436860D4E90801E0
:100A20000843696821F4741108436860C6F860904F
:100A3000FFF754FD044606E025E000BFFFF74EFD3A
:100A4000001B022809D828688001F7D51BE000BFE9
:100A5000FFF744FD001B022802D90320BDE8F88FF0
:100A600028688001F4D40EE00128F7D06868226A73
:100A700000F48031914204D1616A00F47010884220
:100A800001D00120EAE70020E8E700000010024062
:100A900000004242800442421000002000700040EA
:100AA00010B5401EB0F1807F01D3012010BD4FF082
:100AB000E02460610F21601700F0A3F80020A0611E
:100AC00007202061002010BDFEE7000070B586B051
:100AD00000242D480094019402940394816941F00C
:100AE00010018161816901F010010491816941F077
:100AF00020018161816901F020010491816941F047
:100B000004018161816901F004010491816941F06E
:100B10000801816180691D4E00F008004FF4005506
:100B20000490002229463046FFF7D2FC1120CDE97F
:100B30000050022569463046CDE90245FFF7E0FB4B
:100B40000095134DCDE9015469461248FFF7D8FBD3
:100B50004FF40040CDE900050120029069460E489F
:100B6000FFF7CEFB002211460720FFF71BFD0720F1
:100B7000FFF70AFD002201212820FFF713FD28209E
:100B8000FFF702FD06B070BD0010024000100140EA
:100B90000000211000080140000C0140FEE7FEE7C4
:100BA00070477047FFF7A0BC30B58FB0282168466A
:100BB000FFF70AFB14210AA8FFF706FB012108042E
:100BC00000240491CDE90010CDE908040294022527
:100BD00007956846FFF7D4FD08B172B6FEE70F200F
:100BE0000A90CDE90B540D9400210AA80E94FFF74A
:100BF0000BFD002801D072B6FEE70FB030BD704784
:100C0000FEE70907090E002804DB00F1E02080F868
:100C10000014704700F00F0000F1E02080F8141D70
:100C20007047FFF769FCFFF7BFFFFFF74FFFFEE7D5
:100C3000010202030405060708090A0B0C0D0E0F3A
:100C4000101000000000000000000102030406076D
:100C500008090000740C00080000002014000000C7
:100C600028010008880C0008140000206406000019
:100C70004401000800000000010000001000000016
:080C8000000000000024F40054
:04000005080000ED02
:00000001FF
