:020000040800F2
:1000000010070020A90100081318000803170008B2
:1000100011180008AF070008091B000800000000C5
:100020000000000000000000000000001718000899
:10003000B107000800000000151800081918000892
:10004000C3010008C3010008C3010008C301000880
:10005000C3010008C3010008C3010008C301000870
:10006000C3010008C3010008C3010008C301000860
:10007000C3010008C3010008C3010008C301000850
:10008000C3010008C3010008C3010008C301000840
:10009000C3010008C3010008C3010008C301000830
:1000A000C3010008C3010008C3010008C301000820
:1000B000C3010008C301000800000000C3010008DC
:1000C000C30100080000000000000000C301000898
:1000D00000000000FD1A0008C30100080000000035
:1000E000C3010008C3010008C301000800F002F8C2
:1000F00000F04BF80AA090E8000C82448344AAF177
:100100000107DA4501D100F040F8AFF2090EBAE874
:100110000F0013F0010F18BFFB1A43F0010318473B
:10012000C41C0000E41C0000103A24BF78C878C149
:10013000FAD8520724BF30C830C144BF04680C60ED
:10014000704700000023002400250026103A28BF35
:1001500078C1FBD8520728BF30C148BF0B60704739
:10016000642900F0B380732900F0018200207047F9
:100170001FB500F0B9FA04000020002101F09AFD3B
:10018000401C60601FBD10B510BD00F088FA11461C
:10019000FFF7EEFF01F0C9FC00F0B8FA03B4FFF777
:1001A000F2FF03BC00F0FCFA094880470948004709
:1001B000FEE7FEE7FEE7FEE7FEE7FEE7FEE7FEE717
:1001C000FEE7FEE704480549054A064B7047000074
:1001D00073180008ED00000810010020100700202F
:1001E00010030020100300200FB41CB5074B06AA13
:1001F0007B4469460090059800F08FF9002069461D
:1002000000F09EF91CBC5DF814FB00004D030000DB
:100210002DE9F0410E460446002020622046E168A8
:10022000884730B3252805D0D4E901219047206ABA
:10023000401CF2E7E168204600278847050018D0F7
:10024000A5F14100192802D820354FF40067324645
:10025000294620462760FFF783FF40B1012804D0DC
:10026000F61D26F007060836D8E7361DD6E72846DD
:10027000DAE7206ABDE8F08170B50C460546012A30
:1002800005D02878800600D5EA69002302E0012322
:1002900005E05B1C934202D2E05C0028F9D1A8691A
:1002A000E618C01AA861286A184428622846AFF3E5
:1002B000008004E0D5E9012114F8010B9047B44215
:1002C000F8D32846AFF3008070BD00002DE9F0415F
:1002D0000646002410687529314616A510D0AFF3E4
:1002E0000080002802DA404213A507E031688A073F
:1002F00001D512A502E0490704D511A5012401E0AA
:10030000AFF3008000210A2206F1240709E0B0FBC8
:10031000F2FCB0FBF2F302FB1C00303078541846BC
:10032000491C0028F3D123462A463046BDE8F04157
:1003300000F094B8000000002D0000002B00000029
:100340002000000070B5064600F084F804680546F9
:1003500030460A22002100F00EF92C6070BD10B565
:10036000431C02E010F8011B71B18107FAD14FF074
:10037000013202C88C1A8C4314EAC211F9D0C01A97
:100380000A0603D0C01E10BDC01A10BD0A0401D059
:10039000801E10BD0902FCD0401E10BD10B5203AD1
:1003A000C0F00B80B1E81850203AA0E81850B1E82E
:1003B0001850A0E81850BFF4F5AF5FEA027C24BFE4
:1003C000B1E81850A0E8185044BF18C918C0BDE8DB
:1003D00010405FEA827C24BF51F8043B40F8043BA4
:1003E00008BF7047D20728BF31F8023B48BF11F859
:1003F000012B28BF20F8023B48BF00F8012B7047B3
:100400004FF0000200B5134694469646203922BFAD
:10041000A0E80C50A0E80C50B1F12001BFF4F7AFF8
:10042000090728BFA0E80C5048BF0CC05DF804EBDA
:10043000890028BF40F8042B08BF704748BF20F848
:10044000022B11F0804F18BF00F8012B7047704746
:100450007047704700487047B00000202DE9F04712
:100460000D4699469246044600F124080168880624
:1004700004D5E06921F01001216000E00120A842CC
:1004800001DD471B00E00027A1697A1902EB090092
:10049000081AA0612078C00602D42046AFF300807D
:1004A000002608E0D4E901211AF806009047206AE6
:1004B000401C761C20624E45F4DB2078C0060AD52D
:1004C0002046AFF3008006E0D4E9012130209047B8
:1004D000206A401C2062381EA7F10107F4DC07E007
:1004E000D4E9012118F805009047206A401C2062D9
:1004F000281EA5F10105F3DC2046AFF3008020782B
:10050000000602D50220BDE8F0870120FBE70000CD
:1005100001694A1C02610878704700B58FB0CDE9C7
:1005200001310021059105497944CDE903101146B7
:100530006846FFF76DFE0FB000BD0000E5FFFFFF4E
:100540000A6802F8010B0A60704710B5436913B1DD
:10055000AFF3008001E0FFF78FFE012010BD12789D
:1005600000F124010A7000224A700122EDE71168AF
:100570004FF0FF32E9E72DE9F04791460F468046FC
:100580000446002614F8015B2DB100F031F8006834
:10059000405DC007F6D12B2D02D02D2D18D0641E42
:1005A0004A463946204600F02BF827B13968A14267
:1005B00001D1C7F800804FF0020471050BD540420D
:1005C000002803DDFFF746FF0460A007BDE8F087C1
:1005D00046F48066E4E70028F8DAFFF73BFF0460A2
:1005E0006FF00040F2E7000000487047B0000020C4
:1005F00010B500F079F8001D10BD00BFB91600005D
:100600002DE9F05F824615468B4600270AF101046A
:10061000B9460078302801D09DB113E014F8010BE1
:100620000127782803D0582801D045B10AE00DB140
:10063000102D07D1002714F8010B102502E0082522
:1006400000E00A250026B0460EE005FB080005FB89
:1006500006F101271FFA80F801EB1046B6F5803F3E
:1006600000D3B94614F8010B294600F041F80028E0
:10067000EBDABBF1000F05D00FB1641E00E0544669
:10068000CBF80040B9F1000F06D0FFF7E3FE0221DE
:100690000160C81EBDE8F09F48EA0640FAE77546CB
:1006A000FFF7A2FFAE4605006946534620F007005B
:1006B000854618B020B5FFF785FDBDE820404FF016
:1006C00000064FF000074FF000084FF0000B21F03C
:1006D0000701AC46ACE8C009ACE8C009ACE8C00909
:1006E000ACE8C0098D46704700487047D000002034
:1006F0003A2800D2303820F02002412A01D3A2F15A
:100700003700884201D34FF0FF30704710B50446E0
:10071000AFF300802046BDE81040FFF73FBD00006A
:100720004FF0013C50F8042B51F8043B9A4221D180
:10073000A2EB0C03934313EACC1317D150F8042B0C
:1007400051F8043B9A4215D1A2EB0C03934313EAF0
:10075000CC130BD150F8042B51F8043B9A4209D129
:10076000A2EB0C03934313EACC13DBD04FF0000051
:10077000704700BFD01A01BAB1FA81F101F0180137
:1007800022FA01F0CB40C1F12001DBB2C0B2C01AA5
:100790002CFA01F3D11A914311EAC311E6D1704743
:1007A00001491820ABBEFEE7260002007047FEE7B5
:1007B000704772B6FEE710B590F8211000220229AA
:1007C00005D00421816380F82020012010BD01683C
:1007D0000B6823F00E030B6001680B6823F0010324
:1007E0000B6090F84030C46B012101FA03F36360A1
:1007F00080F8211080F82020104610BD10B590F828
:1008000021100024022903D00421816301243DE04A
:1008100001680A6822F00E020A6001680A6822F084
:1008200001020A601A4A0168914201D1012121E0C6
:10083000174A1432914201D110211BE0144A283288
:10084000914201D1891515E0114A3C32914201D102
:1008500089140FE00E4A5032914202D14FF4803198
:1008600008E00B4A6432914202D14FF4801101E05A
:100870004FF08071064A083A5160012180F821103A
:10088000002180F82010416B01B18847204610BD3F
:100890000800024070B5044600F000F90546601CEF
:1008A00002D004480078044400F0F8F8401BA0424D
:1008B000FAD370BD040000202DE9F84FDFF89C91B9
:1008C0000024A9F1040B23460F2709F1040AABF118
:1008D000040EBBE00125A5402A40AA4276D1DFF8EC
:1008E00080C14E68A6EB0C0866452BD00DDC032EAC
:1008F00034D005DC36B3012E19D0022E2FD11BE0E7
:10090000112E16D0122E2AD119E0B8F5881F19D051
:1009100006DCB8F5803F15D0B8F5801F1FD111E077
:10092000B8F5001F0ED0B8F5041F18D10AE0CB6847
:1009300015E0CB681B1D12E0CB6808330FE0CB68D5
:100940000C330CE08B682BB1012B4FF0080303D064
:10095000456104E0042302E0056100E00023FF2A72
:1009600001D8064601E000F104064FEA840501D9EA
:10097000A5F12005D6F8008007FA05FC28EA0C0846
:1009800003FA05F548EA0508C6F800804D68ED0051
:100990005BD5344DAE6946F00106AE61AD6924F019
:1009A000030605F0010500952F4D06EB050CDCF85C
:1009B0000850A607360F07FA06F825EA0805DFF8FB
:1009C000AC80404503D14FF0000810E03DE0DFF877
:1009D000A080404502D14FF0010808E0DFF8948084
:1009E000404502D14FF0020801E04FF0030808FA39
:1009F00006F848EA0508CCF808804D68D9F8006088
:100A0000ED024D4601D5164300E096432E604D6839
:100A1000DAF80060AD02554601D5164300E0964372
:100A20002E604D68DBF80060AD035D4601D51643CE
:100A300000E096432E604D68DEF80060ED037546D9
:100A400001D5164300E096432E60641C0A6832FA12
:100A500004F57FF43FAFBDE8F88F000008040140C3
:100A60000000111000100240000001400008014089
:100A7000000C0140001001408068084000D00120B7
:100A80007047C26821EA02030A4043EA0241016159
:100A900070470AB1016170470904FBE701488068AB
:100AA000704700000400002070B5040025D094F8C1
:100AB0003D00002520B984F83C50204600F0B8F8ED
:100AC000242084F83D002068016821F001010160C4
:100AD0002068016841F4004101602068016821F448
:100AE0000041016000F0F8F94D4A6168914201D877
:100AF0004C4900E04C49884201D2012070BD4B496D
:100B00002368B0FBF1F15E6826F03F060E435E609D
:100B10006368934206D94FF4967359434FF47A733E
:100B2000B1FBF3F12368491C1E6A26F03F063143EE
:100B300019626168914210D84900401EB0FBF1F281
:100B4000521CC2F30B02042A01D2042022E0B0FBA3
:100B5000F1F0401CC0F30B001CE0A268F2B301EB03
:100B6000C10303EB0116431EB3FBF6F35B1C43F416
:100B700080431B0549D092B301EBC10202EB011186
:100B8000401EB0FBF1F0401CC0F30B0040F480406D
:100B900040F400402168CA694CF6FF739A43104341
:100BA000C861D4E9071001432068026822F0C0023E
:100BB00011430160D4E9030101432068826848F2CF
:100BC000FF339A4311438160D4E90501084321684A
:100BD000CA6822F0FF021043C86001E00EE016E090
:100BE0002068016841F0010101602564202084F83B
:100BF0003D00256384F83E50002070BD01EB4106A6
:100C0000431EB3FBF6F35B1CB3E70120C2E701EB25
:100C10004101401EB0FBF1F0401CC0F30B00B7E7F0
:100C2000A086010080841E0000093D0040420F00A4
:100C300010B586B0002100910191029103910068E6
:100C40000F4988421AD10F4CA06940F00800A061FA
:100C5000A069694600F008000490C02000901220AE
:100C60000190032003900848FFF726FEE06940F456
:100C70000010E061E06900F40010049006B010BDBF
:100C80000054004000100240000C014002488168FE
:100C9000027811448160704704000020074810B5B5
:100CA000016841F010010160032000F06DF80F2091
:100CB00000F006F800F024F8002010BD00200240EB
:100CC00070B50D4D04464FF47A712878B1FBF0F001
:100CD0000A490968B1FBF0F000F0D4FA48B9102CC9
:100CE00007D200222146501E00F02EF800206C6032
:100CF00070BD012070BD0000040000201000002025
:100D0000094808B5816941F001018161816901F0FB
:100D100001010091C16941F08051C161C06900F0D9
:100D20008050009008BD000000100240002809DB40
:100D300000F01F02012191404009800000F1E020F5
:100D4000C0F8001170470000F0B40E4B1B680C4651
:100D5000C3F30223C3F10705042D00D90425191D8F
:100D6000072901D2002300E0DB1E012606FA05F167
:100D7000491E214099409E40761E16403143F0BCEA
:100D800000F0C3BE0CED00E0064900F00702086861
:100D90004FF6FF03184040EA0220034A1043086060
:100DA000704700000CED00E00000FA052DE9F04767
:100DB0000F46050061D0434E306800F00700B8428E
:100DC00009D2306820F0070038433060306800F006
:100DD0000700B84251D128683B4C810712D5400723
:100DE00003D5606840F4E06060602878000703D5B0
:100DF000606840F4605060606068A96820F0F000AE
:100E0000084360602878C00728D06868012810D09F
:100E10002168022810D0890700292EDA616821F0A4
:100E2000030101436160FFF739FE804641F28839D2
:100E30000DE021688903EFE78901EDE7FFF72EFE5A
:100E4000A0EB0801494502D90320BDE8F08760689E
:100E5000696800F00C00B0EB810FEFD1306800F052
:100E60000700B8420BD9306820F0070038433060E3
:100E7000306800F00700B84201D00120E5E728788B
:100E8000400705D56068E96820F4E06008436060C9
:100E90002878000706D56068296920F4605040EA88
:100EA000C100606000F038F86168084AC1F30311BE
:100EB000515CC8400649086006480068FFF700FF1B
:100EC0000020C2E70020024000100240061D00087A
:100ED0001000002008000020044805490068496807
:100EE000044AC1F30221515CC84070471000002041
:100EF00000100240161D00080448054900684968B2
:100F0000044AC1F3C221515CC84070471000002060
:100F100000100240161D00080E4A51680E4801F0EC
:100F20000C03042B11D0082B0FD10C48C1F38343C1
:100F3000C903C05C0AD55168084AC1F34041921EFA
:100F4000515C054A5043B0FBF1F0704704494843F7
:100F5000704700000010024000127A00F61C0008E2
:100F600000093D002DE9F84F040070D02078C04DF5
:100F7000C00749D06868C0F38100012807D06868BD
:100F8000C0F38100022809D16868C00306D528682B
:100F9000800339D560680028E7D035E06068B0F597
:100FA000803F0BD010B1B0F5A02F11D0286820F4ED
:100FB00080302860286820F4802002E0286840F40F
:100FC00080302860606890B1FFF768FD06460AE04F
:100FD000286840F480202860F0E700BFFFF75EFD3E
:100FE000801B642873D828688003F7D50CE0FFF7CE
:100FF00055FD064605E000BFFFF750FD801B642845
:10100000F0D828688003F7D420789A4E80074FF0F4
:1010100001094FF0000839D5686810F00C0F07D0AF
:101020006868C0F38100022809D16868C00306D44B
:101030002868800714D52069012808D110E02069AC
:10104000B0B1C6F80090FFF729FD074605E00AE1B8
:10105000FFF724FDC01B0228C4D828688007F7D5F5
:101060002868616920F0F80040EAC10028600DE0BE
:10107000C6F80080FFF712FD074604E0FFF70EFDFB
:10108000C01B022823D828688007F7D420780007DF
:101090002CD57948A169D9B1C0F80090FFF7FEFCC2
:1010A000074604E0FFF7FAFCC01B02280FD8686A65
:1010B0008007F7D571484FF4FA510068B0FBF1F0A2
:1010C000009000BF0098411E0091FAD20EE080E02F
:1010D000C0F80080FFF7E2FC074604E0FFF7DEFC03
:1010E000C01B022875D8686A8007F7D420784007AB
:1010F00060D5E8690027C00008D4E86940F0805056
:10110000E861E869012700F0805000905C480168C0
:10111000C90513D40168834641F480710160FFF76B
:10112000BDFC824606E000BFFFF7B8FCA0EB0A005A
:1011300064284ED8DBF80000C005F5D5E06801282A
:101140000AD008B1052813D0286A20F001002862CF
:10115000286A20F0040002E0286A40F001002862BA
:10116000E06841F2883B98B1FFF798FC82460BE0BB
:10117000286A40F004002862EEE700BFFFF78EFC0B
:10118000A0EB0A0159455AD8286A8007F6D50CE029
:10119000FFF784FC824605E0FFF780FCA0EB0A0124
:1011A00059454CD8286A8007F6D41FB1E86920F069
:1011B0008050E861E06988B36968C1F38101022960
:1011C00044D00228C6F8608004D0FFF767FC0446CC
:1011D00038E034E0FFF762FC074604E0FFF75EFC0E
:1011E000C01B02282BD828688001F7D4206AB0F5EC
:1011F000803F05D16868A16820F40030084368602A
:10120000D4E908010843696821F47411084368604F
:10121000C6F86090FFF742FC044606E025E000BFF8
:10122000FFF73CFC001B022809D828688001F7D58D
:101230001BE000BFFFF732FC001B022802D903208D
:10124000BDE8F88F28688001F4D40EE00128F7D0BB
:101250006868226A00F48031914204D1616A00F426
:101260007010884201D00120EAE70020E8E7000082
:101270000010024000004242800442421000002060
:101280000070004010B5401EB0F1807F01D30120F6
:1012900010BD4FF0E02460610F21601700F035FCB5
:1012A0000020A06107202061002010BD704770471A
:1012B00010F8411F4078084370470000F8B50168F6
:1012C00004460868CA684B6910F00F0F4FF000051C
:1012D00059D003F0010602F49077374365D0C10777
:1012E00005D0D10503D5616C41F00101616441076E
:1012F00005D5D90703D0616C41F002016164810713
:1013000005D5D90703D0616C41F004016164010780
:1013100007D502F02001314303D0616C41F0080190
:101320006164616C00293AD0800604D5900602D52C
:10133000204600F0CEFA20684069616CC0F380104E
:10134000090700D460B3204600F09CFA2068406989
:10135000400621D52068143050E8001F21F04001DC
:1013600040E80012002AF5D1E06BA8B16D49416355
:10137000E06BFFF743FA002811D0E06B416B01B03E
:10138000BDE8F040084783060FD593060DD52046EB
:10139000BDE8F84000F09DBA2046FFF788FFF8BD91
:1013A0002046FFF784FF6564F8BD266B2023012EDD
:1013B0007CD1C6067AD5D60678D5086848680090EC
:1013C00048694FF00206400640D5E16B0868406866
:1013D0000004000CE8D0A28D8242E5D9E08588693E
:1013E00020282DD020680C3050E8001F21F4807197
:1013F00040E80012002AF5D12068143050E8001FA0
:1014000021F0010140E80012002AF5D120681430D3
:1014100050E8001F21F0400140E80012002AF5D1F9
:1014200084F84230256320680C3050E8001F21F01A
:10143000100140E80012002AF5D1E06BFFF7BBF97C
:101440006663A08DE18D401A81B22AE0A08DE18D06
:10145000401A81B2E08D0028A6D00029A4D02268CD
:101460000C3252E8000F20F4907042E80007002F81
:10147000F5D12068143050E8002F22F0010240E836
:101480000027002FF5D184F84230256320680C3006
:1014900050E8002F22F0100240E80023002BF5D185
:1014A00066632046FFF702FFF8BDFFE705062BD570
:1014B000150629D594F841002128F5D1A068B0F58A
:1014C000805F01D12069B0B1206A411C216221688E
:1014D00000784860E08C401E0004000CE084E3D1FA
:1014E0002068C16821F08001C1602068C16841F0B6
:1014F0004001C160D8E7206A0088C0F30800486056
:10150000206A801C2062E5E74006CDD55006CBD589
:10151000CA68204622F04002CA6084F8413000F0D8
:10152000EFF8C1E77518000870B5040004D094F80E
:101530004100002510B106E0012070BD84F8405044
:10154000204600F023F8242084F841002068C16878
:1015500021F40051C160204600F01CFA20680169A6
:1015600021F4904101612068416921F02A01416123
:101570002068C16841F40051C1606564202084F88E
:10158000410084F842006563002070BD30B585B02D
:10159000002400940194029403940068184988423E
:1015A0002CD11848816941F480418161816901F43D
:1015B00080410491816941F0040181618069124D8B
:1015C00000F0040004904FF400700090022001909D
:1015D0000320039069462846FFF76EF92815CDE9E8
:1015E0000004694628460294FFF766F90022114676
:1015F0002520FFF7A9FB2520FFF798FB05B030BD9C
:1016000000380140001002400008014090F84230CC
:10161000202B01D00220704721B11AB100230363AF
:1016200000F014BA0120704701490120087070478A
:10163000000000202DE9F843044690F841001F46C1
:1016400016460D46202802D00220BDE8F8837DB161
:1016500076B100206064212084F84100FFF71EFA73
:10166000A6848046E684A068B0F5805F02D003E0DF
:101670000120EAE7206910B12E4600250EE0002681
:101680000CE08021204600F0FCF9A0B9AEB116F8BC
:10169000010B21684860E08C401EE084E08C4346EA
:1016A0004FF0000200970028EBD14FF04001204698
:1016B00000F0E7F930B10320C7E735F8020BC0F3BB
:1016C0000800E6E7202084F841000020BDE790F8FC
:1016D0004130202B01D00220704779B172B10162F4
:1016E0008284C28400214164212180F84110006875
:1016F000C16841F08001C16000207047012070473F
:101700007047FEE770B586B000242048009401942D
:1017100002940394816941F010018161816901F0B3
:1017200010010491816941F020018161816901F01A
:1017300020010491816941F008018161816901F012
:1017400008010491816941F00401816180690122ED
:1017500000F004000E4E5503049029463046FFF772
:1017600098F911200095CDE9010402200390694603
:101770003046FFF7A1F8A800CDE90004012002904F
:1017800069460448FFF798F806B070BD00100240A3
:1017900000100140000C01400D4810B50B490160DC
:1017A0000C49416000214FF480428160C0E903127E
:1017B00041618161C1610162FFF776F9002803D0C0
:1017C000BDE81040FEF7F5BF10BD0000005400401A
:1017D00014000020A08601000C4810B50A490160E1
:1017E0004FF4E1314160002181600C22C160C0E909
:1017F00004128161C161FFF797FE002803D0BDE8A4
:101800001040FEF7D6BF10BD003801406800002030
:10181000FEE7FEE770477047FFF738BA30B58FB084
:1018200028216846FEF7ECFD14210AA8FEF7E8FD22
:101830000121080400240491CDE90010CDE9080439
:101840000294022507956846FFF78CFB08B172B633
:10185000FEE70F200A90CDE90B540D9400210AA851
:101860000E94FFF7A3FA002801D072B6FEE70FB07E
:1018700030BD704710B5406A0021C185C184FFF7B3
:1018800016FD10BD01680C3151E8002F22F4907252
:1018900041E80023002BF5D10168143151E8002FF5
:1018A00022F0010241E80023002BF5D1016B012950
:1018B00009D101680C3151E8002F22F0100241E8F3
:1018C0000023002BF5D1202180F842100021016374
:1018D000704708B590F84210222901D0022008BDB7
:1018E00082684FF480539A4201D1016921B1816A23
:1018F0009A421BD04AB10AE00268816A5268C2F378
:1019000008020A80816A891C08E0026972B10268D3
:10191000526802F07F020A70816A491C8162C18D9F
:10192000491E0904090CC18503D01BE002685268F6
:10193000F1E70168CA6822F02002CA600168CA683B
:1019400022F48072CA6001684A6922F001024A6189
:10195000202180F8421000214163026B012A03D04C
:10196000FFF762FE002008BD016301680C3151E8F9
:10197000002F22F0100241E80023002BF5D101686E
:101980000A68D20602D50A6849680091818DFFF77E
:101990008DFCE7E770B5044600680169E26821F450
:1019A0004051114301612169A068084361690843FE
:1019B0002168CA6841F20C639A430243CA602068F6
:1019C0004169A26921F44071114341611E492068B7
:1019D000884202D1FFF790FA01E0FFF77DFA00EBB1
:1019E000C00101EB0012606864218000B2FBF0F3DB
:1019F000B3FBF1F36FF018067343B2FBF0F5B2FBE3
:101A0000F0F605EB8305322303EB0515B5FBF1F585
:101A1000B6FBF1F605F0F00505EB0615B2FBF0F6A6
:101A2000B2FBF0F0B0FBF1F06FF01802504306EBA0
:101A3000800003EB0010B0FBF1F0216800F00F0014
:101A40002844886070BD00000038014081628285B2
:101A5000C28500214164222180F84210016921B130
:101A60000168CA6842F48072CA6001684A6942F03B
:101A700001024A610068C16841F02001C160002094
:101A800070472DE9F041984617460E460446069DDC
:101A900027E0681C25D02DB1FFF700F8A0EB080067
:101AA000A8421ED920680C3050E8001F21F4D071E4
:101AB00040E80012002AF5D12068143050E8001FD9
:101AC00021F0010140E80012002AF5D1202084F81D
:101AD000410084F84200002084F840000320BDE863
:101AE000F0812068006836EA000004D00020B84287
:101AF000CFD00020F3E70120F9E700000148FFF70D
:101B0000DDBB000068000020FEE70907090E002881
:101B100004DB00F1E02080F80014704700F00F00B3
:101B200000F1E02080F8141D7047FFF7B7F8FFF7C9
:101B300075FEFFF7E7FDFFF72FFEFFF74DFE00F004
:101B40000FF800F09FF810F0FF0404D0204600F0DA
:101B50002FF8032CF3D06420FEF79CFEF1E7000081
:101B600030B585B0142210496846FEF717FC0024F2
:101B70004FEA0D0555F82400FEF7F1FB82B255F847
:101B800024100A48FFF7A3FD0848FFF791FB21281E
:101B9000FAD00648FFF78CFB2328F5D0641CE4B28A
:101BA000052CE7D305B030BDE01C0008680000201C
:101BB00030B589B0040001D0032C02D9002009B04F
:101BC00030BD02461DA16846FEF70EFB6846FEF7D3
:101BD000C6FB82B24FF0FF352B4669461848FFF727
:101BE00029FD012C04D0022C08D0032C1AD123E0AB
:101BF0004FF400511348FEF744FF13E04FF4004147
:101C00001148FEF739FFA8B110A213A16846FEF7EC
:101C1000EBFA6846FEF7A3FB82B22B4669460848FA
:101C2000FFF708FD2B46042212A10548FFF702FD2D
:101C30000120C4E711A2E8E70220C0E72564000004
:101C40006800002000100140000C014052454C4546
:101C500041534544000000000D0A555345522042AF
:101C60005554544F4E207374617475733A20257324
:101C7000000000000D0A3E200000000050524553B5
:101C800053454400094910B50A784FF0FF30012A46
:101C90000AD100200870491C0548FFF7B7FC03482B
:101CA000401CFEF74FFB40B210BD000000000020BA
:101CB0006800002010B500290AD00878002807D055
:101CC00005487844FEF72CFD002801D0002010BD07
:101CD0000248784410BD0000420100003A010000B3
:101CE000D41D0008DC1D0008201D0008501D000840
:101CF000481D0008010202030405060708090A0B33
:101D00000C0D0E0F1010000000000000000001027A
:101D10000304060708090000000001020304000094
:101D200057656C636F6D6520746F2074686520550E
:101D3000415254202D2D3E204932432F53504920EB
:101D4000546F6F6C210D0A000D0A3E200000000048
:101D500053656C65637420746865206F7074696F77
:101D60006E20796F752061726520696E7465726589
:101D70007374656420696E3A0D0A09312E20546F20
:101D800067676C65204C4432204C45440D0A09328B
:101D90002E205265616420555345522042555454BB
:101DA0004F4E207374617475730D0A09332E2043EE
:101DB0006C6561722073637265656E20616E64206C
:101DC0007072696E742074686973206D65737361D5
:101DD000676520001B5B303B304800001B5B324ACC
:101DE00000000000141F0008000000201400000084
:101DF00028010008281F000814000020FC0600002D
:101E0000440100081001000043000000F8FFFFFF3C
:101E100000404040404040404040414141414140FD
:101E200040404040404040404040404040404040B2
:101E30004005020202020202020202020202020241
:101E40000220202020202020202020020202020246
:101E5000020290909090909010101010101010109E
:101E600010101010101010101010101002020202AA
:101E700002028888888888880808080808080808EE
:101E800008080808080808080808080802020202EA
:101E90004000000000000000000000000000000002
:101EA0000000000000000000000000000000000032
:101EB0000000000000000000000000000000000022
:101EC0000000000000000000000000000000000012
:101ED0000000000000000000000000000000000002
:101EE00000000000000000000000000000000000F2
:101EF00000000000000000000000000000000000E2
:101F000000000000000000000000000000000000D1
:101F100000000000010000000100000010000000AF
:081F2000000000000024F400A1
:04000005080000ED02
:00000001FF
